{
  "contractName": "TokenAirdrop",
  "abi": [
    {
      "inputs": [],
      "stateMutability": "nonpayable",
      "type": "constructor"
    },
    {
      "anonymous": false,
      "inputs": [
        {
          "indexed": false,
          "internalType": "address",
          "name": "recipient",
          "type": "address"
        },
        {
          "indexed": false,
          "internalType": "uint256",
          "name": "amount",
          "type": "uint256"
        },
        {
          "indexed": false,
          "internalType": "uint256",
          "name": "date",
          "type": "uint256"
        }
      ],
      "name": "AirdropProcessed",
      "type": "event"
    },
    {
      "anonymous": false,
      "inputs": [
        {
          "indexed": true,
          "internalType": "address",
          "name": "previousOwner",
          "type": "address"
        },
        {
          "indexed": true,
          "internalType": "address",
          "name": "newOwner",
          "type": "address"
        }
      ],
      "name": "OwnershipTransferred",
      "type": "event"
    },
    {
      "inputs": [
        {
          "internalType": "address",
          "name": "",
          "type": "address"
        }
      ],
      "name": "blockedAccounts",
      "outputs": [
        {
          "internalType": "bool",
          "name": "",
          "type": "bool"
        }
      ],
      "stateMutability": "view",
      "type": "function",
      "constant": true
    },
    {
      "inputs": [
        {
          "internalType": "address",
          "name": "recipient",
          "type": "address"
        },
        {
          "internalType": "uint256",
          "name": "amount",
          "type": "uint256"
        }
      ],
      "name": "claimTokens",
      "outputs": [],
      "stateMutability": "nonpayable",
      "type": "function"
    },
    {
      "inputs": [],
      "name": "countOfAirdropped",
      "outputs": [
        {
          "internalType": "uint256",
          "name": "",
          "type": "uint256"
        }
      ],
      "stateMutability": "view",
      "type": "function",
      "constant": true
    },
    {
      "inputs": [],
      "name": "currentAirdropAmount",
      "outputs": [
        {
          "internalType": "uint256",
          "name": "",
          "type": "uint256"
        }
      ],
      "stateMutability": "view",
      "type": "function",
      "constant": true
    },
    {
      "inputs": [
        {
          "internalType": "address",
          "name": "_signer",
          "type": "address"
        },
        {
          "internalType": "address",
          "name": "_token",
          "type": "address"
        },
        {
          "internalType": "uint256",
          "name": "_amount",
          "type": "uint256"
        }
      ],
      "name": "initialize",
      "outputs": [],
      "stateMutability": "nonpayable",
      "type": "function"
    },
    {
      "inputs": [],
      "name": "maxAirdropAmount",
      "outputs": [
        {
          "internalType": "uint256",
          "name": "",
          "type": "uint256"
        }
      ],
      "stateMutability": "view",
      "type": "function",
      "constant": true
    },
    {
      "inputs": [],
      "name": "owner",
      "outputs": [
        {
          "internalType": "address",
          "name": "",
          "type": "address"
        }
      ],
      "stateMutability": "view",
      "type": "function",
      "constant": true
    },
    {
      "inputs": [
        {
          "internalType": "address",
          "name": "",
          "type": "address"
        }
      ],
      "name": "processedAirdropAmounts",
      "outputs": [
        {
          "internalType": "uint256",
          "name": "",
          "type": "uint256"
        }
      ],
      "stateMutability": "view",
      "type": "function",
      "constant": true
    },
    {
      "inputs": [],
      "name": "renounceOwnership",
      "outputs": [],
      "stateMutability": "nonpayable",
      "type": "function"
    },
    {
      "inputs": [
        {
          "internalType": "address",
          "name": "recipient",
          "type": "address"
        },
        {
          "internalType": "uint256",
          "name": "amount",
          "type": "uint256"
        },
        {
          "internalType": "bytes",
          "name": "signature",
          "type": "bytes"
        }
      ],
      "name": "signClaimTokens",
      "outputs": [],
      "stateMutability": "nonpayable",
      "type": "function"
    },
    {
      "inputs": [],
      "name": "signerAddress",
      "outputs": [
        {
          "internalType": "address",
          "name": "",
          "type": "address"
        }
      ],
      "stateMutability": "view",
      "type": "function",
      "constant": true
    },
    {
      "inputs": [],
      "name": "token",
      "outputs": [
        {
          "internalType": "contract IBEP20",
          "name": "",
          "type": "address"
        }
      ],
      "stateMutability": "view",
      "type": "function",
      "constant": true
    },
    {
      "inputs": [
        {
          "internalType": "address",
          "name": "newOwner",
          "type": "address"
        }
      ],
      "name": "transferOwnership",
      "outputs": [],
      "stateMutability": "nonpayable",
      "type": "function"
    },
    {
      "inputs": [
        {
          "internalType": "uint256",
          "name": "amount",
          "type": "uint256"
        }
      ],
      "name": "updateMaxAmount",
      "outputs": [],
      "stateMutability": "nonpayable",
      "type": "function"
    },
    {
      "inputs": [
        {
          "internalType": "address[]",
          "name": "_recipients",
          "type": "address[]"
        }
      ],
      "name": "addRecipients",
      "outputs": [],
      "stateMutability": "nonpayable",
      "type": "function"
    },
    {
      "inputs": [
        {
          "internalType": "address[]",
          "name": "_recipients",
          "type": "address[]"
        }
      ],
      "name": "removeRecipients",
      "outputs": [],
      "stateMutability": "nonpayable",
      "type": "function"
    },
    {
      "inputs": [
        {
          "internalType": "address[]",
          "name": "addresses",
          "type": "address[]"
        }
      ],
      "name": "blockAccounts",
      "outputs": [],
      "stateMutability": "nonpayable",
      "type": "function"
    },
    {
      "inputs": [
        {
          "internalType": "address[]",
          "name": "addresses",
          "type": "address[]"
        }
      ],
      "name": "unblockAccounts",
      "outputs": [],
      "stateMutability": "nonpayable",
      "type": "function"
    },
    {
      "inputs": [
        {
          "internalType": "address",
          "name": "addr",
          "type": "address"
        }
      ],
      "name": "isBlocked",
      "outputs": [
        {
          "internalType": "bool",
          "name": "",
          "type": "bool"
        }
      ],
      "stateMutability": "view",
      "type": "function",
      "constant": true
    }
  ],
  "bytecode": "0x60806040526d025dd85d670d35ec9bec0000000060055534801561002257600080fd5b5061002c33610035565b60018055610085565b600080546001600160a01b038381166001600160a01b0319831681178455604051919092169283917f8be0079c531659141344cd1fd0a4f28419497f9722a3daafe3b4186f6b6457e09190a35050565b610f95806100946000396000f3fe608060405234801561001057600080fd5b50600436106101215760003560e01c80637424bab1116100ad578063f45bf3d211610071578063f45bf3d21461023f578063faed47fd14610272578063fbac395114610285578063fc0c546a146102b1578063fe417fa5146102c457600080fd5b80637424bab1146101f65780637839b401146101ff5780638da5cb5b146102085780639e1d162c14610219578063f2fde38b1461022c57600080fd5b806356eb87cf116100f457806356eb87cf1461017d5780635b7633d01461019d578063639ab82f146101c85780636abf7081146101db578063715018a6146101ee57600080fd5b8063106b5da1146101265780631794bb3c1461013b57806323efeb121461014e57806329af54cc1461016a575b600080fd5b610139610134366004610e9c565b6102d7565b005b610139610149366004610cc1565b61030f565b61015760055481565b6040519081526020015b60405180910390f35b610139610178366004610dae565b610368565b61015761018b366004610c9f565b60026020526000908152604090205481565b6008546101b0906001600160a01b031681565b6040516001600160a01b039091168152602001610161565b6101396101d6366004610dae565b6103f9565b6101396101e9366004610dae565b610486565b610139610518565b61015760045481565b61015760065481565b6000546001600160a01b03166101b0565b610139610227366004610d27565b61054e565b61013961023a366004610c9f565b610712565b61026261024d366004610c9f565b60076020526000908152604090205460ff1681565b6040519015158152602001610161565b610139610280366004610dae565b6107ad565b610262610293366004610c9f565b6001600160a01b031660009081526007602052604090205460ff1690565b6003546101b0906001600160a01b031681565b6101396102d2366004610cfd565b61083f565b6000546001600160a01b0316331461030a5760405162461bcd60e51b815260040161030190610eb5565b60405180910390fd5b600555565b6000546001600160a01b031633146103395760405162461bcd60e51b815260040161030190610eb5565b610342826108d3565b60055550600880546001600160a01b0319166001600160a01b0392909216919091179055565b6000546001600160a01b031633146103925760405162461bcd60e51b815260040161030190610eb5565b60005b81518110156103f5576001600260008484815181106103b6576103b6610f33565b60200260200101516001600160a01b03166001600160a01b031681526020019081526020016000208190555080806103ed90610f02565b915050610395565b5050565b6000546001600160a01b031633146104235760405162461bcd60e51b815260040161030190610eb5565b60005b81518110156103f55760006002600084848151811061044757610447610f33565b60200260200101516001600160a01b03166001600160a01b0316815260200190815260200160002081905550808061047e90610f02565b915050610426565b6000546001600160a01b031633146104b05760405162461bcd60e51b815260040161030190610eb5565b60005b81518110156103f5576001600760008484815181106104d4576104d4610f33565b6020908102919091018101516001600160a01b03168252810191909152604001600020805460ff19169115159190911790558061051081610f02565b9150506104b3565b6000546001600160a01b031633146105425760405162461bcd60e51b815260040161030190610eb5565b61054c600061094b565b565b600260015414156105a15760405162461bcd60e51b815260206004820152601f60248201527f5265656e7472616e637947756172643a207265656e7472616e742063616c6c006044820152606401610301565b60026001556000546001600160a01b031633146105d05760405162461bcd60e51b815260040161030190610eb5565b6040516bffffffffffffffffffffffff19606086901b1660208201526034810184905260009061066690605401604051602081830303815290604052805190602001206040517f19457468657265756d205369676e6564204d6573736167653a0a3332000000006020820152603c8101829052600090605c01604051602081830303815290604052805190602001209050919050565b905060006106aa8285858080601f01602080910402602001604051908101604052809392919081815260200183838082843760009201919091525061099b92505050565b6008549091506001600160a01b038083169116146106fc5760405162461bcd60e51b815260206004820152600f60248201526e57726f6e67207369676e617475726560881b6044820152606401610301565b6107068686610a1a565b50506001805550505050565b6000546001600160a01b0316331461073c5760405162461bcd60e51b815260040161030190610eb5565b6001600160a01b0381166107a15760405162461bcd60e51b815260206004820152602660248201527f4f776e61626c653a206e6577206f776e657220697320746865207a65726f206160448201526564647265737360d01b6064820152608401610301565b6107aa8161094b565b50565b6000546001600160a01b031633146107d75760405162461bcd60e51b815260040161030190610eb5565b60005b81518110156103f5576000600760008484815181106107fb576107fb610f33565b6020908102919091018101516001600160a01b03168252810191909152604001600020805460ff19169115159190911790558061083781610f02565b9150506107da565b600260015414156108925760405162461bcd60e51b815260206004820152601f60248201527f5265656e7472616e637947756172643a207265656e7472616e742063616c6c006044820152606401610301565b60026001556000546001600160a01b031633146108c15760405162461bcd60e51b815260040161030190610eb5565b6108cb8282610a1a565b505060018055565b6001600160a01b0381166109295760405162461bcd60e51b815260206004820152601f60248201527f506f6f6c3a207a65726f206164647265737320697320666f7262696464656e006044820152606401610301565b600380546001600160a01b0319166001600160a01b0392909216919091179055565b600080546001600160a01b038381166001600160a01b0319831681178455604051919092169283917f8be0079c531659141344cd1fd0a4f28419497f9722a3daafe3b4186f6b6457e09190a35050565b6000806000806109aa85610c54565b6040805160008152602081018083528b905260ff8516918101919091526060810183905260808101829052929550909350915060019060a0016020604051602081039080840390855afa158015610a05573d6000803e3d6000fd5b5050604051601f190151979650505050505050565b6001600160a01b03821660009081526007602052604090205460ff1615610a755760405162461bcd60e51b815260206004820152600f60248201526e626c6f636b6564206164647265737360881b6044820152606401610301565b6001600160a01b03821660009081526002602052604090205415610adb5760405162461bcd60e51b815260206004820152601960248201527f61697264726f7020616c72656164792070726f636573736564000000000000006044820152606401610301565b60055481600454610aec9190610eea565b1115610b3a5760405162461bcd60e51b815260206004820152601d60248201527f61697264726f707065642031303025206f662074686520746f6b656e730000006044820152606401610301565b6001600160a01b038216600090815260026020526040812082905560048054839290610b67908490610eea565b909155505060068054906000610b7c83610f02565b909155505060035460405163a9059cbb60e01b81526001600160a01b038481166004830152602482018490529091169063a9059cbb90604401602060405180830381600087803b158015610bcf57600080fd5b505af1158015610be3573d6000803e3d6000fd5b505050506040513d601f19601f82011682018060405250810190610c079190610e7a565b50604080516001600160a01b038416815260208101839052428183015290517fc0312d3bf25e86c787fa77f4d038213e428dc722e16d38ca9719e987d20f7c7c9181900360600190a15050565b60008060008351604114610c6757600080fd5b5050506020810151604082015160609092015160001a92909190565b80356001600160a01b0381168114610c9a57600080fd5b919050565b600060208284031215610cb157600080fd5b610cba82610c83565b9392505050565b600080600060608486031215610cd657600080fd5b610cdf84610c83565b9250610ced60208501610c83565b9150604084013590509250925092565b60008060408385031215610d1057600080fd5b610d1983610c83565b946020939093013593505050565b60008060008060608587031215610d3d57600080fd5b610d4685610c83565b935060208501359250604085013567ffffffffffffffff80821115610d6a57600080fd5b818701915087601f830112610d7e57600080fd5b813581811115610d8d57600080fd5b886020828501011115610d9f57600080fd5b95989497505060200194505050565b60006020808385031215610dc157600080fd5b823567ffffffffffffffff80821115610dd957600080fd5b818501915085601f830112610ded57600080fd5b813581811115610dff57610dff610f49565b8060051b604051601f19603f83011681018181108582111715610e2457610e24610f49565b604052828152858101935084860182860187018a1015610e4357600080fd5b600095505b83861015610e6d57610e5981610c83565b855260019590950194938601938601610e48565b5098975050505050505050565b600060208284031215610e8c57600080fd5b81518015158114610cba57600080fd5b600060208284031215610eae57600080fd5b5035919050565b6020808252818101527f4f776e61626c653a2063616c6c6572206973206e6f7420746865206f776e6572604082015260600190565b60008219821115610efd57610efd610f1d565b500190565b6000600019821415610f1657610f16610f1d565b5060010190565b634e487b7160e01b600052601160045260246000fd5b634e487b7160e01b600052603260045260246000fd5b634e487b7160e01b600052604160045260246000fdfea2646970667358221220f8c224c071abbc3b84f4fd979e2738b772ca481a0f9965cfd8ef661cd9a4be7064736f6c63430008070033",
  "immutableReferences": {},
  "source": "// SPDX-License-Identifier: MIT\r\npragma solidity ^0.8.3;\r\n\r\nimport './base/Airdrop.sol';\r\n\r\n\r\ncontract TokenAirdrop is Airdrop{\r\n  constructor(){}\r\n  function addRecipients(address[] memory _recipients) external onlyOwner {\r\n    for(uint i = 0; i < _recipients.length; i++) {\r\n      processedAirdropAmounts[_recipients[i]] = 1;\r\n    }\r\n  }\r\n\r\n  function removeRecipients(address[] memory _recipients) external onlyOwner {\r\n    for(uint i = 0; i < _recipients.length; i++) {\r\n      processedAirdropAmounts[_recipients[i]] = 0;\r\n    }\r\n  }\r\n  function blockAccounts(address[] memory addresses) public onlyOwner {\r\n      for(uint i = 0; i < addresses.length; i++) {\r\n      blockedAccounts[addresses[i]] = true;\r\n    }\r\n  }\r\n  function unblockAccounts(address[] memory addresses) public onlyOwner {\r\n      for(uint i = 0; i < addresses.length; i++) {\r\n      blockedAccounts[addresses[i]] = false;\r\n    }\r\n  }\r\n  function isBlocked(address addr) public view returns(bool){\r\n      return blockedAccounts[addr];\r\n  }\r\n}\r\n",
  "sourcePath": "D:\\04_Work\\001\\MemeCoin\\smart_contracts\\contracts\\TokenAirdrop.sol",
  "compiler": {
    "name": "solc",
    "version": "0.8.7+commit.e28d00a7.Emscripten.clang"
  },
  "schemaVersion": "3.4.3",
  "updatedAt": "2021-12-17T17:46:59.475Z",
  "networkType": "ethereum",
  "devdoc": {
    "kind": "dev",
    "methods": {
      "owner()": {
        "details": "Returns the address of the current owner."
      },
      "renounceOwnership()": {
        "details": "Leaves the contract without owner. It will not be possible to call `onlyOwner` functions anymore. Can only be called by the current owner. NOTE: Renouncing ownership will leave the contract without an owner, thereby removing any functionality that is only available to the owner."
      },
      "transferOwnership(address)": {
        "details": "Transfers ownership of the contract to a new account (`newOwner`). Can only be called by the current owner."
      }
    },
    "version": 1
  },
  "userdoc": {
    "kind": "user",
    "methods": {},
    "version": 1
  }
}